:020000040800F2
:100000009828002029020008D52C0008292A000879
:10001000D12C000865040008355B000800000000D2
:100020000000000000000000000000007553000800
:100030006904000800000000D92C0008795300086A
:10004000430200084302000843020008430200087C
:10005000430200084302000843020008430200086C
:10006000430200084302000843020008430200085C
:10007000430200084302000843020008430200084C
:10008000430200084302000843020008430200083C
:10009000430200084302000843020008430200082C
:1000A000430200084302000843020008430200081C
:1000B000430200086D540008430200084302000890
:1000C00043020008430200084302000843020008FC
:1000D00043020008430200084302000843020008EC
:1000E00043020008430200084302000843020008DC
:1000F00043020008430200084302000843020008CC
:1001000043020008430200084302000843020008BB
:1001100043020008430200084302000843020008AB
:10012000430200084302000843020008430200089B
:10013000430200084302000843020008430200088B
:10014000430200084302000843020008430200087B
:10015000430200084302000843020008430200086B
:10016000430200084302000843020008430200085B
:1001700043020008430200080000000000000000E5
:10018000430200084302000800F002F800F03CF8C7
:100190000AA090E8000C82448344AAF10107DA45E2
:1001A00001D100F031F8AFF2090EBAE80F0013F0F8
:1001B000010F18BFFB1A43F001031847A485000084
:1001C000C4850000103A24BF78C878C1FAD8520715
:1001D00024BF30C830C144BF04680C6070470000C1
:1001E0000023002400250026103A28BF78C1FBD840
:1001F000520728BF30C148BF0B6070471FB508F0D9
:10020000F1F81FBD10B510BD00F0F2F81146FFF770
:10021000F5FF07F095FC00F010F903B4FFF7F2FFCB
:1002200003BC00F017F9000009488047094800475F
:10023000FEE7FEE7FEE7FEE7FEE7FEE7FEE7FEE796
:10024000FEE7FEE704480549054A064B70470000F3
:10025000595400088901000898220020982800209D
:10026000982400209824002053EA020C00F06980B2
:100270002DE9F04B4FF00006002B1FBFB3FA83F5BA
:1002800003FA05F424FA05F65E4012BF1643B2FAEB
:1002900082F502FA05F4C5F120051EBF22FA05FC1D
:1002A00044EA0C04203556EA044C4FEA144418BFC3
:1002B000641C4FF000084FF00009904271EB030CF2
:1002C00039D3002919BFB1FA81F701FA07F6B0FA5C
:1002D00080F700FA07F6C7F120071EBF20FA07FCD7
:1002E00046EA0C062037B6FBF4FCA7EB0507103FE7
:1002F00007F01F0BCBF120062CFA06F60CFA0BFBCD
:1003000044BFB3460026202FA4BF5E464FF0000B2B
:100310005BEA060C08BF4FF0010B19EB0B0948EB29
:100320000608ABFB027C06FB02CC0BFB03CCC01B1C
:1003300071EB0C01C1E70B46024641464846BDE859
:10034000F08B13B5084318BF4FF0FF300146AFF3F1
:100350000080BDE81C4070474FF000020429C0F047
:10036000128010F0030C00F01B80CCF1040CBCF1E7
:10037000020F18BF00F8012BA8BF20F8022BA1EB39
:100380000C0100F00DB85FEAC17C24BF00F8012B1E
:1003900000F8012B48BF00F8012B70474FF0000216
:1003A00000B5134694469646203922BFA0E80C506B
:1003B000A0E80C50B1F12001BFF4F7AF090728BF46
:1003C000A0E80C5048BF0CC05DF804EB890028BFC2
:1003D00040F8042B08BF704748BF20F8022B11F0EB
:1003E000804F18BF00F8012B704770477047704767
:1003F000754600F02BF8AE4605006946534620F0DE
:100400000700854618B020B5FFF71CFFBDE8204067
:100410004FF000064FF000074FF000084FF0000BC0
:10042000AC46ACE8C009ACE8C009ACE8C009ACE82F
:10043000C00921F007018D46704710B50446AFF39F
:1004400000802046BDE81040FFF7E7BE0048704737
:100450002800002001491820ABBEFEE7260002005C
:1004600070470000FEE7000070470000EFF31080C7
:1004700072B600BFFEE7000080B540F2C803C2F2CA
:1004800000035A7A002A1CBF012080BD93F809C0DE
:100490008646002003F80C005A7A03EB8202C2F869
:1004A00004E05A7A1A44107293F809C00CF1010260
:1004B0005A720CF130020A7042F63A72A1F8012029
:1004C000C87080BD2DE9F04F85B00C68002C00F09D
:1004D000F38041F6000600F13842C4F600064FEA08
:1004E000B2270723B04208BF0623062F4FF0010EA4
:1004F0004FF0000A4FF001074FF000064FF00008E0
:1005000038BF4FEAB2230093CDE902100DE000BFDF
:100510000C6808F1010834FA07F206F1020607F147
:1005200001070AF1040A00F0C7807D1E0EFA05F2E9
:1005300014EA0209ECD0D1F804C00CF0030BABF1C3
:100540000104022C1CD203988E4683684FEA4800AF
:100550000190032000FA06F4C868A343B040184392
:10056000039BE443986003984368039823EA0201DD
:10057000CCF30012019BAA401143416017E000BF79
:10058000BBF1030F0ED1C46A4FF0030B24EA020241
:10059000CCF3C004AC402243C2620BFA06F2D4434F
:1005A00033462AE00322B2408E46D4433346C16824
:1005B000DEF8082021409A401143BBF1020FC160D0
:1005C00019D16FF0030101EA55010144D1F820C0AF
:1005D0009B460AF01C030F20DEF8102098402CEAFE
:1005E000000C9A4042EA0C0203980A62DEF804C04A
:1005F0005B460CF0030B4FF0010E01680BFA03F29F
:1006000021401143016002991CF4403F3FF480AF48
:1006100041F26002C4F20202106840F2004C40F065
:10062000010010601068C4F2010C00F00100049099
:10063000049825F003004FF6084B6044CFF6FF7B8B
:1006400050F80B400AF00C020F23009D934024EA5F
:10065000030305FA02F21A4340F80B20DCF8080005
:100660004C6840EA090240F20C45E30258BF20EA18
:100670000902CCF80820C4F201052868A30240EA68
:10068000090258BF20EA09022A60DCF80400A3032B
:1006900040EA090258BF20EA0902CCF80420DCF83D
:1006A0000050039845EA0902E30358BF25EA09020E
:1006B000CCF800202CE700BF05B000F000B830BC3B
:1006C000BDE8C08F1823002A08BF2823C1507047F7
:1006D00042F29020C2F200000068704740F2000031
:1006E00042F29021C2F20000C2F2000100780A68D2
:1006F000104408607047000080B5032000F08AF8BD
:100700000F2000F009F800281CBF012080BD00F078
:100710002BF8002080BD000070B540F20006C2F248
:1007200000063178E1B1044640F20C00C2F200004C
:100730004FF47A720068B2FBF1F1B0FBF1F001F016
:10074000E9FD0F2C4FF0010508D838B94FF0FF3004
:1007500021460022002500F031F87460284670BD63
:100760000125284670BD000082B041F25800C4F255
:100770000200816841F001018160816801F001019E
:1007800001910199016841F080510160006800F019
:1007900080500090009802B070470000002848BFC9
:1007A000704700F01F01012202FA01F14EF200121F
:1007B0004009CEF2000242F82010704710B54EF604
:1007C0000C5CCEF2000CDCF80030C3F3022E8EF08D
:1007D0000704042C28BF0424BEF103034FF0FF3E9E
:1007E0000EFA04F438BF0023A14399400EFA03F334
:1007F0009A4300F00F03043B1143634409010C3397
:1008000000F16042B0F1FF3FC8BF02F564431970C8
:1008100010BD00004EF60C51CEF200010A684FF6F2
:10082000FF031A4060F30A2242F0806040F0FD703E
:100830000860704747F20001C4F200010A68B0F591
:10084000007F02F4C06037D1B0F5007F31D0086876
:10085000012262F34A20086040F20C00C2F200005C
:100860000068322250434DF68362C4F21B32A0FB73
:100870000202900C4A69431C18BF12F4806213D024
:100880004A69002818BF12F480620DD04A69012815
:1008900018BF12F4806207D04A69022804D012F40B
:1008A0008062A0F10400E5D14869400544BF0320FF
:1008B00070470020704700BFB0F5806FF9D008681E
:1008C000022262F34A2008600020704747F20000CD
:1008D000C4F20000006800F4C060704747F20000F6
:1008E000C4F20000016841F48071016070470000AB
:1008F00041F20000C4F20200016841F0040101600D
:10090000704700002DE9F04782B00446407841F27C
:1009100088070007C4F2020730D5606E4FEAB05175
:1009200003290BD8DFE801F002101C25201D00214F
:1009300002F0D4F9064670B91AE000BF01266078CB
:10094000C0060BD51EE000BF04F12000002102F01C
:100950007DFA064660B16078C00613D4B2464EE018
:1009600057F87C1C41F4803147F87C1C01E000BF43
:10097000606E396821F440010843386000266078D1
:10098000C006EBD5A06E4FEA306003280AD8B24605
:10099000DFE800F002102216201D002102F09EF96F
:1009A0000DE000BF4FF0010A4FF00108A07880076A
:1009B0000DD528E004F12000002102F047FA82461C
:1009C000BAF1000FD04612D0A07880071BD4C246DF
:1009D0002168C80768D088E057F87C0CB24640F41C
:1009E000803047F87C0CBAF1000FD046ECD1386863
:1009F000A16E20F0407008434FF0000A3860B04606
:100A0000A0788007E3D557F8300C10F080590BD14F
:100A100057F8300C40F0805047F8300C57F8300C45
:100A200000F080500190019847F20005C4F20005E3
:100A3000286840F480702860FFF74AFE064600BF31
:100A40002868C00508D4FFF743FE801B0228F7D9A9
:100A50004FF0030A22E000BFBAF1000F1ED1B868C0
:100A600010F4407012D0D4F8841088420BD0B868CB
:100A7000B96820F4407041F48031B960B96821F45C
:100A80008031B960B860C00740F01C81B868D4F804
:100A9000841020F440700843C246B860B9F1000FDA
:100AA0001AD02168C80720D1880726D448072CD43B
:100AB000080732D4C80638D488063ED4880544D402
:100AC00048054AD4480650D4080656D4C8055CD414
:100AD000880462D473E000BF57F8300C20F08050D7
:100AE00047F8300C2168C807DED03868A26B20F0C8
:100AF0000300104338608807D8D53868E26B20F0CF
:100B00000C00104338604807D2D53868226C20F0BA
:100B10003000104338600807CCD53868626C20F08C
:100B2000C00010433860C806C6D53868A26C20F4EF
:100B30004070104338608806C0D53868E26C20F4F5
:100B40004060104338608805BAD53868E26D20F4FB
:100B50004020104338604805B4D53868226E20F430
:100B60004010104338604806AED53868226D20F436
:100B70004050104338600806A8D53868626D20F4EC
:100B8000404010433860C805A2D53868A26D20F4F3
:100B9000403010433860880411D53A68E06E22F086
:100BA00040620243B0F1806F3A601DD0B0F1006F37
:100BB00005D157F87C0C40F4801047F87C0C0803F2
:100BC00026D53A68206F22F040620243B0F1806F70
:100BD0003A6015D0B0F1006F1AD157F87C0C40F490
:100BE000801047F87C0C13E0201D012102F076F8FC
:100BF0002168002818BF82460803E2D408E000BF3D
:100C0000201D012102F06AF82168002818BF8246E1
:100C1000480311D53A68606F22F040620243B0F198
:100C2000806F3A601CD0B0F1006F05D157F87C0C92
:100C300040F4801047F87C0C480425D53968A06F33
:100C400021F040510143B0F1005F396014D0B0F1A0
:100C5000805F19D1201D022102F040F811E000BF91
:100C6000201D012102F03AF82168002818BF8246B1
:100C70004804E3D408E000BF04F12000022102F0A0
:100C8000E5F8002818BF82462068010406D4C00396
:100C90000CD4504602B0BDE8F08700BF3968E26F5F
:100CA00021F0804111433960C003F2D53868D4F88F
:100CB000801020F0004008433860504602B0BDE884
:100CC000F08700BFFFF704FD064641F288354FF07C
:100CD000030A00BFB86880073FF5D8AEFFF7F8FCFD
:100CE000801BA842F6D9D9E62DE9F04381B000284F
:100CF0006BD042F20008C4F202080446D8F80000A3
:100D00000D4600F0070088420CD2D8F8000020F011
:100D100007002843C8F80000D8F8000000F00700DA
:100D2000A84252D1206841F2080910F00201C4F231
:100D300002090DD0A268D9F8003003F0F0039A42FE
:100D400006D9D9F8003023F0F0031A43C9F800207F
:100D5000C2072DD169B1A168D9F8002002F0F002D4
:100D6000914206D2D9F8002022F0F0021143C9F8CE
:100D70000010D8F8001001F00701A9420CD9D8F8EA
:100D8000001021F007012943C8F80010D8F800101E
:100D900001F00701A94218D141071BD4000723D451
:100DA000D9F80000D9F8041010F00C002CD131E073
:100DB000606800285ED0022800F07E80032840F0A2
:100DC000818059F8081C890158D4012001B0BDE880
:100DD000F08300BFD9F80010E26821F4E06111430C
:100DE000C9F800100007DBD5D9F80000216920F40C
:100DF000605040EAC100C9F80000D9F80000D9F8F5
:100E0000041010F00C0005D00C2829D101F00301CA
:100E1000012925D159F8081C090703D4D9F88C10E9
:100E2000090A02E059F8081C090948F2984201F041
:100E30000F01C0F6000252F8211000280A4618BF20
:100E400000220C2871D1D9F8040000F00300022818
:100E500046D0032804BF41F20021C0F27A0143E0EA
:100E6000042857D008285BD141F20022C0F27A0250
:100E70005BE000BF59F8081C8907A6D5D9F8001017
:100E800021F003010843C9F80000FFF721FC0646E2
:100E900041F28837D9F80000616800F00C00B0EB2F
:100EA000810F15D0FFF714FC801BB842F2D9032044
:100EB00001B0BDE8F08300BF59F8081C89037FF535
:100EC00084AFDBE759F8081C49057FF57EAFD5E70D
:100ED000206800F0020100297FF43DAF49E700BF20
:100EE00042F20041C0F2F401D9F80400D9F804201C
:100EF000C0F30210C2F306225143D9F80420013096
:100F0000B1FBF0F0C2F34161022202EB4101B0FB00
:100F1000F1F20AE042F20042C0F2F40205E000BF42
:100F2000002200210C283FF48EAFD9F8000048F2CF
:100F3000FE31C0F30310C0F60001085C00F01F0092
:100F400022FA00F140F20400C2F2000040F20C026A
:100F50000068C2F20002116001B0BDE8F043FFF783
:100F6000DBBB000040F20C0041F20801C2F20000BD
:100F7000C4F202010068096848F20E42C1F302217E
:100F8000C0F60002515C01F01F01C840704700002C
:100F900040F20C0041F20801C2F20000C4F202016A
:100FA0000068096848F20E42C1F3C221C0F600028F
:100FB000515C01F01F01C8407047000041F20C0174
:100FC000C4F2020151F8040C10F00C02086805D0BC
:100FD0000C2A29D100F00300012825D151F80C0C6E
:100FE000000703D4D1F88800000A02E051F80C0C85
:100FF000000948F2984300F00F00C0F6000353F8D0
:101000002030002A184618BF00200C2A18BF70474D
:10101000086800F00300022810D0032804BF41F242
:101020000023C0F27A030DE0042A1FD0082A23D13E
:1010300041F20020C0F27A00704700BF42F2004344
:10104000C0F2F40308680A68C0F30210C2F3062273
:10105000096801305A43B2FBF0F0C1F3416102224A
:1010600002EB4101B0FBF1F0704700BF42F20040DB
:10107000C0F2F400704700BF00200023C5E7000065
:101080002DE9F04383B0002800F0068341F200060A
:101090000446C4F20206B068F168227800F00C0938
:1010A000D00601F003081DD42078C00700F081802D
:1010B000B9F1080F76D0B9F10C0F08BFB8F1030FE2
:1010C00070D06068B0F5803F07D0B0F5A02F40F039
:1010D0001982306840F480203060306840F48030FD
:1010E00030601AE2B9F1000F1ED0B9F10C0F08BF41
:1010F000B8F1010F18D0A1693068002900F0AE8165
:1011000040F001003060FFF7E3FA054630688007E1
:1011100000F1B681FFF7DCFA401B02284FF0030014
:10112000F4D903B0BDE8F0833068800703D5A06927
:10113000002800F0B182256A3068000700F11E81A6
:10114000D6F89400000900F0F000854200F21C81FE
:101150003068B9F1000F40F008003060306820F0CE
:10116000F00040EA050030607068E16920F47F40DB
:1011700040EA0120706040F07D82B06DC00000F157
:101180001982B06D40F08050B065B06D00F08050B5
:1011900002900298FFF79AFBB16D21F08051B16582
:1011A0000AE200BF3068800303D56068002800F0C1
:1011B0007382207880072DD5B9F1040F1CD0B9F1C6
:1011C0000C0F08BFB8F1020F16D0E1683068002993
:1011D00000F0B28140F480703060FFF779FA054684
:1011E000306840050FD4FFF773FA401B02284FF018
:1011F0000300F5D995E700BF3068400503D5E068E6
:10120000002800F049827068216920F0F85040EA17
:1012100001607060207800075ED42078400771D4A8
:10122000A06A002800F0E282022840F0DF80F06827
:10123000E16A00F003028A4240F0F080226B6FF016
:101240000F0300F0700103EB0212914240F0E680C0
:10125000616B00F4FE42B2EB012F40F0DF80A16B26
:1012600000F40032073918BF01218A4240F0D680CD
:10127000E26B0023CFF6E07303EB025200F4C001EF
:101280006FF31402914240F0C980216C4FF07E420E
:1012900002EB016100F0C06001F07E41884240F045
:1012A000BD803068800100F1A182306840F080701C
:1012B0003060F06840F08070F060FFF709FA044693
:1012C0003068800100F19282FFF702FA001B0228C9
:1012D0004FF00300F4D924E76169D6F8940000299F
:1012E0006ED040F00100C6F89400FFF7F1F9054612
:1012F000D6F89400800790D4FFF7EAF9401B022843
:10130000F6D9FBE0B06D10F0805808D1B06D40F018
:101310008050B065B06D00F080500090009847F2AA
:101320000007C4F200073868C00513D4386840F4D9
:1013300080703860FFF7CCF9054600BF3868C005FB
:1013400008D4FFF7C5F9401B02284FF00300F5D978
:10135000E7E600BFA068012808D0052840F0B0806B
:10136000D6F8900040F00400C6F89000D6F890003F
:1013700040F00100C6F89000B1E000BF306800F016
:10138000F00085427FF6E4AEB06DC00000F18A80C7
:10139000B06D40F08050B065B06D00F080500190AD
:1013A0000198FFF793FAB16D21F08051B165B0F566
:1013B000007F00F07D80802D40F2D0800320D8E0B7
:1013C00020F00100C6F89400FFF782F9054600BF3F
:1013D000D6F8940080077FF520AFFFF779F9401B1E
:1013E00002284FF00300F3D99BE600BFB9F10C0FC0
:1013F00000F05281306820F080703060FFF768F9AB
:10140000044600BF3068800140F1E480FFF760F9D6
:10141000001B02284FF00300F4D982E6B9F10C0F4B
:1014200000F03A81306840015CBF30685FEAC0007C
:1014300000F13281306820F080703060FFF748F9A9
:1014400005463068800140F18F81FFF741F9401B6C
:1014500002284FF00300F4D963E600BF20F001003A
:101460003060FFF735F90546306880077FF51CAE20
:10147000FFF72EF9401B02284FF00300F4D950E685
:10148000306840F0080030603068D4E9072120F06F
:10149000F00008433060706820F47F4040EA02208A
:1014A000706001E6FFF712FAB0F5007F7FF483AFBA
:1014B000812D5DD30120A02D88BF022059E000BFFF
:1014C000D6F89010002821F00101C6F89010D6F847
:1014D000901021F00401C6F8901000F08780FFF70B
:1014E000F7F8054641F28837D6F89000800700F1FA
:1014F0008F80FFF7EDF8401BB842F5D9032003B009
:10150000BDE8F0833168002821F480313160316812
:1015100021F48021316000F08580FFF7D9F805467D
:10152000306880033FF545AEFFF7D2F8401B6428D2
:101530004FF00300F4D9F4E520F480703060FFF739
:10154000C7F80546306840057FF564AEFFF7C0F880
:10155000401B02284FF00300F4D9E2E5A5F170002A
:10156000B0FA80F04009802D08BF022001E000BFE2
:10157000002042F20001C4F202010A6822F00702D0
:1015800002440A60096801F00701814240F084804A
:10159000306840F0080030603068D4E9072120F05E
:1015A000F00008433060706820F47F4040EA022079
:1015B00070605FE0FFF78AF9B0F5007F06D1812DFA
:1015C00040D30120A02D88BF022045E0802D3BD9CB
:1015D000032041E0F0684FF6FC71CFF6EE61084061
:1015E000F060002003B0BDE8F08300BFFFF770F8A3
:1015F000054641F28837D6F89000800708D5FFF7F6
:1016000067F8401BB8424FF00300F4D989E500BFEA
:10161000B8F1000F7FF404AEB06D20F08050B065DB
:10162000FEE500BFFFF754F80546306880037FF5FC
:10163000C0ADFFF74DF8401B64284FF00300F4D90C
:101640006FE500BF002007E0A5F17000B0FA80F060
:101650004009802D08BF022042F20001C4F20201BD
:101660000A6822F0070202440A60096801F00701D3
:10167000814211D1B068F16810F00C0005D00C283F
:101680002AD101F00301012926D13168090707D4C5
:10169000D6F89410090A05E0012003B0BDE8F083F4
:1016A0003168090948F2984201F00F01C0F60002C2
:1016B00052F8211000280A4618BF00220C2837D102
:1016C000F06800F00300022810D0032804BF41F2A4
:1016D0000021C0F27A010DE004281FD0082823D190
:1016E00041F20022C0F27A0222E000BF42F2004141
:1016F000C0F2F401F068F268C0F30210C2F30622EF
:101700005143F2680130B1FBF0F0C2F341610222B3
:1017100002EB4101B0FBF1F20AE000BF42F20042ED
:10172000C0F2F40204E000BF002200210C28C7D060
:10173000B06848F2FE31C0F30310C0F60001085C47
:1017400000F01F0022FA00F140F20400C2F2000093
:1017500040F20C020068C2F200021160FEF7DCFFEA
:1017600000287FF4DEAC9FE4F06848F28C01CFF6ED
:101770009D1104F12C0700EA010C8ECFD4E90F541F
:101780006FF00F0040F2000E00EB0210CFF6E07E8B
:1017900041EA0C010EEB05554FF07E4208436FF312
:1017A000140502EB046240EA032002F07E420EF5CB
:1017B000F014284304EA473710433843F060306898
:1017C00040F080703060F06840F08070F060FEF7AC
:1017D0007FFF04463068800108D4FEF779FF001BC4
:1017E00002284FF00300F5D99BE400BF002003B0AE
:1017F000BDE8F08370B5002862D0044690F821005F
:1018000028B9002084F82000204600F05DF802206E
:1018100084F821002168CA20486253204862C868C1
:1018200040061FD44FF0FF30C860FEF751FF21681B
:10183000CA68520616D40646002500BFFEF748FFC8
:10184000801BB0F57A7F84BF032584F8215021687E
:10185000032DC86802D010F04000EFD015B1E8B2F7
:1018600070BD00BF88684FF6BF72CFF68F72104010
:101870008860261D236945CE1843A3698D681843E7
:10188000284388600E61086940EA024008612046EA
:1018900001F080FB05460028E1D120686169E2691A
:1018A000C36C114323F00303C364C36C00251943C5
:1018B000C164FF214162012084F82100E8B270BDBB
:1018C0000125E8B270BD000010B5A2B0044668461C
:1018D00004308021FEF762FD206842F60001C4F268
:1018E0000001884202D022B010BD00BF4FF400308A
:1018F00000904FF4007021906846FFF703F800282D
:1019000018BFFEF7B3FD41F29000C4F20200016877
:1019100041F40041016022B010BD00002DE9F04704
:10192000044690F820000225012800F0998001204B
:1019300084F8200084F8215052B14A7808788B78D6
:10194000C978120242EA0141194441EA40374DE0A8
:1019500048784CF6CD4CC20642BF00F0EF000A308A
:101960004870CB78CCF6CC4CA3F10A0E5FFA8EF21D
:10197000A2FB0C28A0F10A0A8A785FFA8AF7A7FB73
:101980000C79A2F10A07FDB2A5FB0C564FEAD80567
:1019900005EB85054FF0010CAEEB450E0CEBD805C1
:1019A000092B88BF4EEA05134FEAD90505EB8505DB
:1019B00091F800E00CEBD901AAEB4505092888BF96
:1019C00045EA0110F108DBB201EB81011B04A7EB32
:1019D00041010CEBD607092A88BF41EA0712C0B2C1
:1019E000D1B243EA4E3242EA002047182168CA20A9
:1019F000486253204862C86840061FD44FF0FF3049
:101A0000C860FEF765FE2168CA68520616D406460D
:101A1000002500BFFEF75CFE801BB0F57A7F84BF17
:101A2000032584F821502168032DC86802D010F0E6
:101A30004000EFD015B1FF2048620EE027F0C00053
:101A40004860204601F0A6FA05462068FF21416261
:101A50001DB90120002584F82100002084F8200011
:101A6000E8B2BDE8F08700002DE9F04F81B00446F0
:101A700090F820000227012800F0B180012084F8AE
:101A8000200084F821700D462168CA204862532046
:101A90004862C868904640061ED44FF0FF30C860C8
:101AA000FEF716FE2168CA68520615D406460027BE
:101AB000FEF70EFE801BB0F57A7F84BF032784F803
:101AC00021702168032FC86802D010F04000EFD0C9
:101AD00017B1FF2048627FE08868B8F1000F00F07E
:101AE000400003D040B90022EA7007E070B94FF01F
:101AF000000C85F803C00CE0E87882056B78287844
:101B0000AF781B0243EA0040384448E0E8784FEAE7
:101B1000805C2A784CF6CD4EA2F10A086F785FFA05
:101B200088F3CCF6CC4EA3FB0E39A7F10A0AAB78AA
:101B30005FFA8AF0A0FB0E0BA3F10A00C6B2A6FB67
:101B40000E6E4FEAD90606EB8606A8EB46064FF066
:101B5000010808EBD909092A88BF46EA09124FEAA9
:101B6000DB0606EB86065FFA82F908EBDB02AAEBDE
:101B70004606092F88BF46EA02174FEADE0202EB4B
:101B80008202A0EB4200FEB208EBDE02092B88BF06
:101B900040EA02134CEA0940DAB240EA0620104358
:101BA00047F67F72C0F27F0210400860886820F418
:101BB00080208860D5E903028B6810431843886051
:101BC000204601F0E7F907462068FF2141621FB96E
:101BD0000120002784F82100002084F82000F8B2BA
:101BE00001B000F000B830BCBDE8C08F90F85D00D7
:101BF00070470000002804BF01207047B0B50446BC
:101C0000406A28B10020206104F1140006E000BF02
:101C10006068B0F5827F03D004F11C0000210160F0
:101C20000025A56294F85D0020B9204684F85C5038
:101C300000F04EF8022084F85D002068D4F80CE033
:101C40000268BEF5E06F22F0400202604EF40062CE
:101C500098BF0125B2F5706F1CBF0023A3624FEA45
:101C6000053CD4E90135D4E9042103F4827305F479
:101C700004452B4402F002021A44A36901F0010159
:101C8000E569114403F40072114405F03802256A35
:101C9000114405F08002A56A114405F40052114375
:101CA00001600421626A0EF4706501EA1341636BFE
:101CB00045EA0C0502F01002294303F00803114322
:101CC0001943416000200121206684F85D10B0BDF9
:101CD00080B586B0006843F60001C4F20001884276
:101CE00002D006B080BD00BF41F24C00C4F2020039
:101CF000C16841F48041C160C16801F48041019133
:101D00000199016841F008010160006801A900F033
:101D10000800019001981A200190022002900020F2
:101D20000390032004900520059040F60040C4F67F
:101D30000000FEF7C7FB06B080BD00002DE9F043B0
:101D400081B0044690F85C00012803D1022001B064
:101D5000BDE8F0834FF001091D4616460F4684F892
:101D60005C90FEF7B5FC94F85D10012974D18046B3
:101D7000002F4FF0010018BF002E00F0DA80032082
:101D8000002184F85D002166A763A687E6872164A9
:101D9000A4F84410A4F84610A068E164B0F5004F20
:101DA0002068216507D1016821F0400101600168C8
:101DB00041F4804101600168490603D4016841F0A3
:101DC000400101606168731EE268B1FA81F1B3FA03
:101DD00083F349095B09B2F5E06F41EA03013DD99C
:101DE00031B137F8021BC160A763E18F0139E18788
:101DF000E18F002973D0691C1BD000BF816889075F
:101E000006D4FEF765FCA0EB0800A84208D3B9E0B1
:101E1000A16B31F8022BC260A163E08F0138E0872B
:101E2000E08F00285BD0206881688907E9D5EFE75B
:101E300020688168890703D4FEF74AFC08E000BFE8
:101E4000A16B31F8022BC260A163E08F0138E087FB
:101E5000E08F0028ECD142E002206AE089B1E18FF6
:101E600002294FF6FE7103D337F8022BC26004E05B
:101E70003A7801310273A06B471CA763E08F0844D6
:101E8000E087E08F58B3681C61D04FF6FE70461CA7
:101E900008E000BFFEF71CFCA0EB0800A84273D2CC
:101EA000E08FE0B1206881688907F3D5E18F0129CF
:101EB00008D9A16B31F8022BC2604FF6FE70A16306
:101EC00007E000BFA16B09780173A06B0130A0632C
:101ED0003046E18F0844E087E08F0028E2D12046B9
:101EE0004FF4C0512A46434603F038F968B92046FA
:101EF0002946424603F0D6F938B920464FF4C0616E
:101F00002A46434603F02AF928B1206E40F020000B
:101F1000206620202066A06838B900200090206844
:101F2000C1680091806800900098206E002818BF5A
:101F30000120002184F85D9084F85C1001B0BDE8B8
:101F4000F08300BFFEF7C4FBE08F0028C7D02068F5
:101F500081688907F6D5E18F022909D3A16B31F891
:101F6000022BC260A163E08F0238E087ECE700BF7C
:101F7000A16B09780173A06B0130A063E08F013879
:101F8000E087E1E70320D4E70320D2E72DE9F0431F
:101F900081B0044690F85C00012803D1022001B012
:101FA000BDE8F08301201E4615460F4684F85C000C
:101FB000FEF78EFB94F85D108146012940F0B08059
:101FC000002F4FF0010018BF002D00F09881002E67
:101FD00000F0958194F85D0004281CBF052084F86A
:101FE0005D00002020662564A4F84660A4F84460E3
:101FF000A763E687C4E913002068A687E168426802
:10200000B1F5E06F22F48052134698BF03F5805378
:10201000012E88BF134643600268520603D402684B
:1020200042F0400202606268731EB2FA82F2B3FAB2
:1020300083F3DDF8208052095B09B1F5E06F43EAD4
:10204000020140F27D8031B137F8021BC160A76305
:10205000E08F0138E087012518F1010034D101E05B
:10206000FEF736FBE08F20B9B4F84600002800F0F8
:1020700027812068816889070CD5E18F012D09D15E
:1020800041B1A16B002531F8022BC260A163E18F41
:102090000139E1878168C907E2D0B4F84610002908
:1020A000DED0C068216C012521F8020B2164B4F850
:1020B00046000138A4F84600D2E700BFFEF708FB4F
:1020C000A0EB0900404545D2E08F20B9B4F84600A6
:1020D000002800F0F5802068816889070CD5E18F21
:1020E000012D09D141B1A16B002531F8022BC2604D
:1020F000A163E18F0139E1878168C907DED0B4F8B7
:1021000046100029DAD0C068216C012521F8020BA5
:102110002164B4F846000138A4F84600CEE700BFB9
:102120006068B0F5827F09D104294FF0020040F0C9
:10213000E680A16800293FF443AFE0E00220DEE042
:1021400099B1E18F02294FF6FE7105D337F8022BC2
:10215000C26006E00320D2E03A7801310273A06B3E
:10216000471CA763E08F0844E087012518F10100B0
:1021700064D10DE0007B216C0870206C013020647C
:10218000B4F846000138A4F846000125FEF7A0FA8D
:10219000E08F20B9B4F84600002800F09180206854
:1021A0008168890719D5E18F012D16D1A9B1E18F79
:1021B000022907D3A16B31F8022BC260A163E18F22
:1021C000023908E0A16B09780173A16B2068013125
:1021D000A163E18F01390025E1878168C907D5D066
:1021E000B4F846100029D1D0B4F846100229C1D362
:1021F000C168226C22F8021B2264B4F8461002392E
:10220000A4F84610B4F846100129BED8416841F43C
:1022100080514160B9E700BF007B216C0870206CE1
:1022200001302064B4F846000138A4F846000125C6
:10223000FEF74EFAA0EB090040455FD2E08F10B9DF
:10224000B4F84600E0B320688168890719D5E18FAA
:10225000012D16D1A9B1E18F012907D9A16B31F860
:10226000022BC260A163E18F023908E0A16B0978FB
:102270000173A16B20680131A163E18F0139002551
:10228000E1878168C907D3D0B4F846100029CFD0C0
:10229000B4F846100129BFD9C168226C22F8021B8C
:1022A0002264B4F846100239A4F84610B4F8461077
:1022B0000129BCD8416841F480514160B7E700BFB3
:1022C00020464FF4C05142464B4602F047FF68B9E2
:1022D000204641464A4602F0E5FF38B920464FF411
:1022E000C06142464B4602F039FF88B1206E40F093
:1022F0002000206620202066012000E0032001212C
:1023000084F85D10002184F85C1001B0BDE8F08312
:102310000020F4E7411E0020B0EB116F1CBF01202C
:1023200070474EF21002CEF2000251604EF6235179
:10233000CEF20001F0230B7007219060116070470E
:1023400070470000704700007047000010B590F81B
:102350003C20012A4FF0020255D080F83D2002684F
:1023600043F2004C5368D2F808E0C4F2010C624515
:1023700005D042F60044C4F20104A24203D14C68E5
:1023800023F4700323430C6823F07003234340F6C7
:10239000FF34C4F20004A242536011DD43F2FF3364
:1023A000C4F201039A421BDC40F60043C4F200036E
:1023B0009A421DD042F60043C4F201030DE000BF73
:1023C000B2F1804F14D040F20043C4F200039A42AD
:1023D0000ED040F60003C4F200039A4208D00CE08D
:1023E00044F20003C4F201039A4201D0624504D1D1
:1023F00089682EF08003194391600121002280F842
:102400003D1080F83C20104610BD0000002804BF9D
:102410000120704710B5044690F83D0028B900200F
:1024200084F83C00204600F023F8022084F83D00A8
:102430002068211D03F020F8012084F8480084F86A
:102440003E0084F83F0084F8400084F8410084F89E
:10245000420084F8430084F8440084F8450084F87E
:10246000460084F8470084F83D00002010BD0000BD
:1024700080B582B0006840F20041C4F20001884299
:102480001CBF02B080BD41F25800C4F202000168D6
:10249000002241F0020101600068002100F002000A
:1024A000019001981D20FEF789F91D2002B0BDE8BA
:1024B0008040FEF773B9000080B590F83C20012AF7
:1024C0004FF0020200F0C28080F83D20D0F800C03A
:1024D0008822DCF80830CFF6FE721A40CCF80820CB
:1024E0000B684F2B28DC1F2B44DD202B45D0302BD5
:1024F00043D0402B40F0AC80D1F804E0C968DCF850
:102500002030DCF8202022F00102CCF82020DCF87A
:10251000182022F0F00242EA011123F00A0242EAF6
:102520000E02CCF81810CCF82020DCF8081041F08E
:10253000470121F0300180E06F2B27DDB3F5005F0C
:1025400048D0B3F5805F7AD0702B40F08180D1E91C
:1025500001E3C968DCF8082043EA0E0322F47F4255
:1025600043EA01211143CCF80810DCF8081041F0CF
:10257000770162E00BB1102B6AD1DCF8081021F072
:102580007001194341F0070157E000BF502B35D0CF
:10259000602B5DD1D1F804E0C968DCF8203023F06D
:1025A0001003CCF82030DCF81830DCF8202023F4BD
:1025B000704322F0A00243EA013142EA0E12CCF845
:1025C0001810CCF82020DCF8081041F0670121F049
:1025D000100132E0D1E901E3C968DCF8082043EAE0
:1025E0000E0322F47F4243EA01211143CCF8081084
:1025F000DCF8081041F480411FE000BFD1F804E08E
:10260000C968DCF82030DCF8202022F00102CCF888
:102610002020DCF8182022F0F00242EA011123F019
:102620000A0242EA0E02CCF81810CCF82020DCF89E
:10263000081041F0570121F02001CCF808100022C9
:10264000012180F83D10002180F83C10104680BD2B
:102650000122F5E77047000010B5016804460869DB
:10266000800744BFC8685FEA80703FD408694007AC
:1026700044BFC8685FEA407044D40869000744BF9B
:10268000C8685FEA00704BD40869C00644BFC868D8
:102690005FEAC06050D40869C0071CBFC8685FEA21
:1026A000C07057D10869000644BFC8685FEA00607F
:1026B00058D40869C00544BFC8685FEA006059D4AF
:1026C0000869400644BFC8685FEA40605AD4086998
:1026D000800646BFC8685FEA806010BD6FF02002C8
:1026E00020460A61BDE81040FFF72EBE6FF00200E1
:1026F000086101202077886980074BD02046FFF7CA
:10270000A9FF4DE06FF0040008610220207788697E
:1027100010F4407F48D02046FFF79CFF4AE000BFFE
:102720006FF00800086104202077C869800745D051
:102730002046FFF78FFF47E06FF010000861082088
:102740002077C86910F4407F42D02046FFF782FF0F
:1027500044E000BF6FF001000861204600F046F839
:1027600021689FE76FF0800008612046FFF7EAFDCF
:1027700021689EE76FF4807008612046FFF7E0FD56
:1027800021689DE76FF040000861204600F030F8B6
:1027900021689CE7204600F025F8204600F024F848
:1027A00021680020207761E7204600F01BF82046D2
:1027B00000F01AF82168002020775EE7204600F03C
:1027C00011F8204600F010F82168002020775BE720
:1027D000204600F007F8204600F006F821680020A7
:1027E000207758E7704700007047000070470000EE
:1027F00070470000B0B582B0A0B10446806F28B920
:10280000002084F87400204600F056F82420A067C9
:102810002068016821F001010160204602F040FFBC
:10282000012803D1012002B0B0BD00BF606A10B121
:10283000204602F0C1FE2068416821F490414160C9
:10284000816821F02A018160016841F00101016085
:102850000020C4F88000FDF73BFF216805460A68A8
:1028600012070CD56FF07E4C20464FF40011002269
:102870002B46CDF800C003F04DF878B92168086800
:1028800040070FD56FF07E4C20464FF480010022A8
:102890002B46CDF800C003F03DF818B1032002B07C
:1028A000B0BD00BF2020A067E0670020206684F84C
:1028B000740002B0B0BD0000B0B5A8B0044601A8D5
:1028C0000025043084212795CDE92555CDE92355F0
:1028D000FDF764FD206843F60001C4F2010188425F
:1028E00002D028B0B0BD00BF0120019001A80F9513
:1028F000FEF708F8002818BFFDF7B8FD41F24C00BC
:10290000C4F20200416941F480414161416901F42E
:10291000804100910099016841F002010160006866
:1029200023A900F0020000900098C020239002200C
:10293000249000202590032026900720279040F225
:102940000040C4F60000FDF7BDFD28B0B0BD00009A
:102950002DE9F04381B00446806F20280BD10E464C
:1029600000294FF001005CD01746002A59D094F896
:102970007400012804D1022001B0BDE8F08300BF3B
:10298000012084F874004FF0000921201D46C4F88E
:102990008090A067FDF79CFEA4F85070A4F85270D8
:1029A000A1680746B1F5805F08D1206900281CBFE7
:1029B00030464E46B046064602E000BF4FF00008E3
:1029C00084F8749009E000BF16F8010B21680885AF
:1029D000B4F852000138A4F85200B4F8520088B19B
:1029E0002046802100223B46009502F093FF88B9E3
:1029F000002EE9D138F8020B21686FF35F200885BB
:102A00000026E5E72046402100223B46009502F0E3
:102A100081FF18B1032001B0BDE8F0832020A0673A
:102A2000002001B0BDE8F083FEE7000010B540F2E1
:102A30009A04C2F2000440F21000611CC2F20000CD
:102A4000FDF71AFD207010BD2DE9F04786B0002774
:102A500041F24C000597C4F202000168002241F0E7
:102A6000040101600168102601F004010091009941
:102A7000016841F080010160016801F0800100916E
:102A80000099016841F001010160016801F0010154
:102A900000910099016841F002010160016801F0B4
:102AA000020100910099016841F00801016000688D
:102AB000102100F00800009000984FF09040FDF7C2
:102AC00001FE40F6004AC4F6000AAAF50065284651
:102AD00044F20401002244F20408FDF7F3FD5046DD
:102AE000212100224FF02109FDF7ECFD019601AEF6
:102AF00001244FF090403146CDE902470497FDF79D
:102B0000E1FC28463146CDE90184CDE90377FDF7A4
:102B1000D9FC50463146CDE90194CDE90377FDF764
:102B2000D1FC042001904FF48810CDE902075046F3
:102B30003146FDF7C7FC06B0BDE8F08710B586B09A
:102B400042F2381042F600010024C2F20000C4F242
:102B500000017F22C0E9001400F10801CDE9024420
:102B6000CDE90044FF231CC1C0E90544C461FEF760
:102B700041FE002818BFFDF779FC42F23810C2F27E
:102B8000000001A90122ADF804408DF80640CDE90E
:102B90000444FEF769FF002818BFFDF767FC40F208
:102BA0000110C0F20100009042F23810C2F20000A1
:102BB00069460122FEF7B2FE002818BFFDF756FC59
:102BC00006B010BD10B542F25C1043F60001C2F22F
:102BD0000000C4F200014FF4827200234FF4E06C55
:102BE0004FF4007E082480E80E100721C0E904336A
:102BF000C0E906E4C0E90833C0E90A31C0E90C3491
:102C0000FEF7F8FF002808BF10BDBDE81040FDF733
:102C10002DBC000080B588B042F2C01040F20042E6
:102C20000021C2F20000C4F20002132340F2E73C8C
:102C30000791CDE905110391CDE90111C0E9002308
:102C4000C0E9021C01618161FFF7E0FB002818BFA9
:102C5000FDF70CFC4FF48050049042F2C010C2F219
:102C6000000004A9FFF728FC002818BFFDF7FEFBB1
:102C700000200190039042F2C010C2F2000001A9AE
:102C8000FFF764FB002818BFFDF7F0FB08B080BD1C
:102C900080B542F20C2043F60001C2F20000C4F2FB
:102CA000010100234FF00C0C4FF4612280E80E006C
:102CB000C0E90333C0E905C3C0E907334362FFF746
:102CC00099FD002808BF80BDBDE88040FDF7CEBB60
:102CD000FEE70000FEE7000070470000F0B581B09D
:102CE00041F20007C4F20207FA680D469107044654
:102CF00014D0F868216800F0030088424FF001000A
:102D000040F0A180002900F09E80F8686168C0F35F
:102D100002100130884232D134E000BF206803281D
:102D20000CD0022816D0012829D13968012211F0CF
:102D3000020182EA510116D120E000BF39688903FF
:102D400010D43968012211F4802182EA91410AD11C
:102D500014E000BF3968012211F4806182EA9121F8
:102D600001D10BE00021FA68636822F073026FF072
:102D70000F0606EB031310431843F86011B101204E
:102D800001B0F0BD386820F080603860FDF7A0FC2D
:102D9000064600BF3868000106D5FDF799FC801B88
:102DA0000228F7D946E000BF012D0FD005BB3869D6
:102DB00048F2FF01CFF6FD710140D4E90220002363
:102DC000CFF6FE7303EA403020E000BF48F2FF0177
:102DD0003869CFF6FF1101F1B46101402069002389
:102DE000CFF6E073A26803EB00506FF314000DE020
:102DF000386948F2FF01CFF6FF11014060694FF0DA
:102E00007E43A26803EB006000F07E4041EA0221AD
:102E100008433861386840F080603860FDF758FC3E
:102E2000054600BF3868000108D4FDF751FC401B7F
:102E30000228F7D9032001B0F0BD00BFA0693969AD
:102E400008433861002001B0F0BD0000F0B581B04A
:102E500041F20007C4F20207FA680D4691070446E2
:102E600014D0F868216800F0030088424FF0010098
:102E700040F08D80002900F08A80F8686168C0F316
:102E800002100130884219D136E000BF20680328C3
:102E900018D002280AD0012810D13968012211F077
:102EA000020182EA510108D019E000BF396801220D
:102EB00011F4806182EA912111D1E9B1012001B0C0
:102EC000F0BD00BF3968890308D43968012211F4C4
:102ED000802182EA9141F0D001E000BF0021FA6830
:102EE000636822F073026FF00F0606EB03131043C2
:102EF0001843F8600029E1D1386820F0805038602C
:102F0000FDF7E6FB064600BF3868800006D5FDF7F2
:102F1000DFFB801B0228F7D930E000BF78696DB174
:102F200048F2FF01CFF6FF11014020694FF07E43C8
:102F3000A26803EB006000F07E400BE048F2FF0166
:102F4000CFF6FD710140D4E902200023CFF6FE73D5
:102F500003EA403041EA022108437861386840F0D2
:102F600080503860FDF7B4FB054600BF386880002C
:102F700008D4FDF7ADFB401B0228F7D9032001B0B0
:102F8000F0BD00BF6069796908437861002001B035
:102F9000F0BD000070B542F60806C4F20006716884
:102FA000044621F0800171603168890616D42068DA
:102FB000C16821F0A001C160FDF78AFB054600BF92
:102FC0002068C068800627D4FDF782FB401BB0F55F
:102FD0007A7FF5D9032084F8210070BD306820F095
:102FE000200030602068C16821F0A001C160FDF7B9
:102FF0006FFB05462068C06880060FD4FDF768FBAC
:10300000401BB0F57A7FF5D9032084F821003168A0
:1030100041F02001316070BD002070BD002031689A
:1030200041F02001316070BD2DE9F04F83B040F6D2
:103030000048C4F60008404620210122FDF742FB6B
:1030400042F25C15FF20C2F200058DF8070000BFB8
:103050002846FEF7CBFD0128FAD142F25C15C2F2F8
:1030600000050DF10701284601224FF47A73FEF79F
:1030700065FEFF208DF807002846FEF7B7FD012802
:10308000FAD142F25C15C2F200050DF107012846A3
:1030900001224FF47A73FEF751FEFF208DF80700EE
:1030A0002846FEF7A3FD0128FAD142F25C15C2F2D0
:1030B00000050DF10701284601224FF47A73FEF74F
:1030C0003DFEFF208DF807002846FEF78FFD012802
:1030D000FAD142F25C15C2F200050DF10701284653
:1030E00001224FF47A73FEF729FEFF208DF80700C6
:1030F0002846FEF77BFD0128FAD142F25C15C2F2A8
:1031000000050DF10701284601224FF47A73FEF7FE
:1031100015FEFF208DF807002846FEF767FD012801
:10312000FAD142F25C15C2F200050DF10701284602
:1031300001224FF47A73FEF701FEFF208DF807009D
:103140002846FEF753FD0128FAD142F25C15C2F27F
:1031500000050DF10701284601224FF47A73FEF7AE
:10316000EDFDFF208DF807002846FEF73FFD012802
:10317000FAD142F25C15C2F200050DF107012846B2
:1031800001224FF47A73FEF7D9FDFF208DF8070076
:103190002846FEF72BFD0128FAD142F25C15C2F257
:1031A00000050DF10701284601224FF47A73FEF75E
:1031B000C5FDFF208DF807002846FEF717FD012802
:1031C000FAD142F25C15C2F200050DF10701284662
:1031D00001224FF47A73FEF7B1FD40462021002210
:1031E000FDF770FA40208DF8080000BF2846FEF772
:1031F000FDFC0128FAD142F25C15C2F2000502A9D9
:10320000284601224FF47A73FEF798FD00208DF8CE
:10321000080000BF2846FEF7E9FC0128FAD142F277
:103220005C15C2F2000502A9284601224FF47A7308
:10323000FEF784FD00208DF8080000BF2846FEF749
:10324000D5FC0128FAD142F25C15C2F2000502A9B0
:10325000284601224FF47A73FEF770FD00208DF8A6
:10326000080000BF2846FEF7C1FC0128FAD142F24F
:103270005C15C2F2000502A9284601224FF47A73B8
:10328000FEF75CFD00208DF8080000BF2846FEF721
:10329000ADFC0128FAD142F25C15C2F2000502A988
:1032A000284601224FF47A73FEF748FD95208DF8E9
:1032B000080000BF2846FEF799FC0128FAD142F227
:1032C0005C15C2F2000502A9284601224FF47A7368
:1032D0004FF47A79FEF732FD41F6FF744FF0FF0AA2
:1032E0004FF0000B0DF10A060DF109078DF80AA049
:1032F0008DF809B02846FEF779FC0128FAD1284656
:1033000031463A460123CDF80090FEF73FFE601E9D
:10331000A04204D29DF8091004460129E6D1404696
:1033200020210122FDF7CEF942F25C14FF20C2F207
:1033300000048DF80B0000BF2046FEF757FC012863
:10334000FAD142F25C10C2F200000DF10B01012231
:103350004FF47A730124FEF7F1FC40F28800C2F2C8
:103360000000447003B000F000B830BCBDE8C08F6E
:103370002DE9F04782B040F29808C2F200084FF4FD
:10338000FA70A8F80000FF2042F25C148DF80500E6
:103390000020C2F200048DF8040000BF2046FEF7B2
:1033A00025FC0128FAD142F25C14C2F200044FF469
:1033B0007A790DF1050101AA20460123CDF800908C
:1033C000FEF7E4FD4FF0FF0A00270DF107050DF1B0
:1033D000060600BF8DF807A08DF806702046FEF7A0
:1033E00005FC0128FAD12046294632460123CDF8B2
:1033F0000090FEF7CBFD9DF80600FF2806D0B8F838
:1034000000100029E6D102B0BDE8F087FF2002B02D
:10341000BDE8F0872DE9F04F87B040F2980A814669
:10342000C2F2000A4FF4FA700291AAF80000FF20DD
:1034300042F25C148DF80F000020C2F200048DF8F7
:103440000E0000BF2046FEF7D1FB0128FAD142F260
:103450005C16C2F200064FF47A7B0DF10F010DF1FC
:103460000E0230460123CDF800B0FEF78FFDFF2598
:103470004FF000080DF1110704AC00BF8DF811509A
:103480008DF810803046FEF7B1FB0128FAD13046A6
:10349000394622460123CDF800B0FEF777FD9DF8AE
:1034A0001000FF2806D0BAF800000028E6D1FF205F
:1034B000CCE000BF42F25C144D46C2F200048DF82D
:1034C000129000BF2046FEF791FB0128FAD142F28C
:1034D0005C14C2F200040DF11201204601224FF4E7
:1034E0007A73FEF72BFC029E300E8DF8130000BF9E
:1034F0002046FEF77BFB0128FAD142F25C14C2F2AF
:1035000000040DF11301204601224FF47A73FEF7F7
:1035100015FC300C8DF814002046FEF767FB0128DF
:10352000FAD142F25C14C2F2000405A9204601223D
:103530004FF47A73FEF702FC300A8DF8150000BFD5
:103540002046FEF753FB0128FAD142F25C14C2F286
:1035500000040DF11501204601224FF47A73FEF7A5
:10356000EDFB8DF8166000BF2046FEF73FFB0128FB
:10357000FAD142F25C14C2F200040DF116012046A9
:1035800001224FF47A73FEF7D9FB0020402D08BFCB
:103590006FF06A00482D08BF6FF078008DF81700B3
:1035A0002046FEF723FB0128FAD142F25C10C2F25A
:1035B00000000DF1170101224FF47A734FF47A796C
:1035C000FEF7BCFB4C2D1BD1FF2042F25C148DF8A2
:1035D00019000020C2F200048DF818002046FEF702
:1035E00005FB0128FAD142F25C104FF47A77C2F25F
:1035F00000000DF1190106AA01230097FEF7C6FC91
:1036000042F25C140A274FF0FF084FF0000AC2F2A2
:1036100000040DF11B050DF11A0600BF8DF81B808B
:103620008DF81AA02046FEF7E1FA0128FAD12046CB
:10363000294632460123CDF80090FEF7A7FC9DF9FC
:103640001A00013F390601D00028E7D4C0B207B004
:1036500000F000B830BCBDE8C08F00002DE9F04F8D
:1036600085B00D460446FFF783FEFF2818D142F2CD
:103670005C16C2F200068DF8095000BF3046FEF716
:10368000B5FA0128FAD142F25C10C2F200000DF145
:10369000090101224FF47A73FEF750FBFD2D03D18F
:1036A000002005B000F0B6B842F25C150026C2F268
:1036B00000050DF10A080DF10B0700BF20788DF809
:1036C0000A0000BF2846FEF791FA0128FAD12846E1
:1036D000414601224FF47A73FEF730FB60788DF893
:1036E0000B0000BF2846FEF781FA0128FAD12846D0
:1036F000394601224FF47A730234FEF71FFB013E74
:103700003006DBD1FF2042F25C148DF80D00002062
:10371000C2F200048DF80C002046FEF767FA01287B
:10372000FAD142F25C14C2F200044FF47A770DF140
:103730000D0103AA204601230097FEF727FCFF2076
:103740008DF80F0000208DF80E0000BF2046FEF718
:103750004DFA0128FAD142F25C14C2F200044FF48F
:103760007A780DF10F010DF10E0220460123CDF8FC
:103770000080FEF70BFC4FF000094FF0FF0A0DF13F
:10378000110B04AE002500BF8DF811A08DF810902C
:103790002046FEF72BFA0128FAD120465946324638
:1037A0000123CDF80080FEF7F1FB9DF8100000F03A
:1037B0001F07052F03D0402D05F10105E4D342F288
:1037C0005C144FF0FF084FF00009C2F200044FF400
:1037D0007A7A0DF113050DF1120600BF8DF81380F2
:1037E0008DF812902046FEF701FA0128FAD1204602
:1037F000294632460123CDF800A0FEF7C7FB9DF80D
:1038000012000028EAD0781FB0FA80F0400905B015
:1038100000F000B830BCBDE8C08F000000281CBF1D
:10382000012070472DE9F04383B040F20806C2F250
:1038300000063078800700F1878140F60049C4F621
:103840000009FFF7F1FB4846202100224FF0000855
:10385000FCF738FF40200021FFF7DCFD01284FF086
:10386000000540F0468140F29607C2F2000764204E
:10387000388048204FF4D571FFF7CCFD012840F087
:103880000581FF2042F25C158DF807000020C2F28E
:1038900000058DF8060000BF2846FEF7A7F90128AD
:1038A000FAD142F25C15C2F200054FF47A740DF1C0
:1038B00007010DF10602284601230094FEF766FB7E
:1038C000FF208DF8070000208DF806002846FEF73F
:1038D0008DF90128FAD142F25C15C2F200054FF4CD
:1038E0007A740DF107010DF10602284601230094B8
:1038F000FEF74CFBFF208DF8070000208DF8060036
:103900002846FEF773F90128FAD142F25C15C2F29B
:1039100000054FF47A740DF107010DF106022846F7
:1039200001230094FEF732FB9DF80640FF208DF83E
:10393000070000208DF806002846FEF757F90128F9
:10394000FAD142F25C104FF47A75C2F200000DF128
:1039500007010DF1060201230095FEF717FB012C6C
:103960004FF0000540F0C5809DF80600AA2803D05E
:10397000BFE000BF388860B177200021FFF74AFD23
:103980000128F7D869204FF08041FFF743FD002858
:10399000F0D13888002800F0AB807A200021002583
:1039A000FFF738FD002840F0A4808DF8085042F25F
:1039B0005C15FF20C2F200058DF809002846FEF7CD
:1039C00015F90128FAD142F25C15C2F200054FF454
:1039D0007A770DF1090102AA284601230097FEF724
:1039E000D5FA9DF80870FF208DF8090000208DF8A9
:1039F000080000BF2846FEF7F9F80128FAD142F284
:103A00005C15C2F200054FF47A740DF1090102AAA7
:103A1000284601230094FEF7B9FAFF208DF809002B
:103A200000208DF8080000BF2846FEF7DFF80128C7
:103A3000FAD142F25C15C2F200054FF47A740DF12E
:103A4000090102AA284601230094FEF79FFAFF20ED
:103A50008DF8090000208DF8080000BF2846FEF709
:103A6000C5F80128FAD142F25C104FF47A75C2F21F
:103A700000000DF1090102AA01230095FEF786FA64
:103A80000625780658BF022533E000BF77200021C5
:103A9000FFF7C0FC012805D869200021FFF7BAFC18
:103AA000012815D941200021FFF7B4FC10B1388856
:103AB0000028F7D101253888D0B150204FF400718B
:103AC000FFF7A8FC002818BF002512E0388858B17D
:103AD00077200021FFF79EFC0128F7D869200021FC
:103AE000FFF798FC0028F1D1022538880028E4D19E
:103AF000002540F28807C2F2000748462021012233
:103B00003D70FCF7DFFD42F25C14FF20C2F20004BE
:103B10008DF80B008DF80A802046FEF767F8012823
:103B2000FAD142F25C104FF47A74C2F200000DF147
:103B30000B010DF10A0201230094FEF727FA3DB1B3
:103B4000307800F0FE003070307803B0BDE8F083CC
:103B500000207870307803B0BDE8F0832DE9F04F95
:103B600085B028B10426304605B001F02EB800BF5C
:103B700015460C46052915D12878022800F08880C2
:103B8000012800F091800028ECD140F28800C2F2B8
:103B9000000041780026012908BF4670304605B074
:103BA00001F013B840F20800C2F200000078C0072C
:103BB00068D140F60040C4F6000020210022FCF746
:103BC00081FD0D2C4FF0040600F2BC87DFE814F0F5
:103BD0000E007400B000BA07BA07BA07BA07BA07EE
:103BE000BA07BA07BA07B600F200FC0040F298091B
:103BF000C2F200094FF4FA70A9F80000FF2042F267
:103C00005C148DF813000020C2F200048DF812003D
:103C10002046FDF7EBFF0128FAD142F25C15C2F213
:103C200000050DF1130A0DF112074FF47A782846BA
:103C300051463A460123CDF80080FEF7A7F9FF244C
:103C4000002600BF8DF813408DF812602846FDF75E
:103C5000CDFF0128FAD1284651463A460123CDF836
:103C60000080FEF793F99DF81200FF2803D0B9F801
:103C700000100029E6D1B0F1FF0618BF012600F0C0
:103C800061BF00BF0326304605B000F09EBF00BFF5
:103C900040F28800C2F2000040780026687030468A
:103CA00005B000F092BF00BFFFF7BEF90026304616
:103CB00005B000F08ABF00BF492000214FF0000B83
:103CC000FFF7A8FB00287CD140F2960142F25C1776
:103CD000C2F200010A204FF0FF08C2F200074FF4C1
:103CE0007A7A0DF113090DF1120408808DF8138012
:103CF0008DF812B03846FDF779FF0128FAD1384621
:103D0000494622460123CDF800A00126FEF73EF9E0
:103D10009DF81200FF2840F00F8140F29600C2F299
:103D20000000008801260028E0D100F00BBF00BF92
:103D30004FF400702880002600F004BF49200021C5
:103D40004FF0000BFFF766FBD8BB40F2960142F242
:103D50005C17C2F200010A204FF0FF08C2F2000710
:103D60004FF47A7A0DF113090DF1120408808DF8E1
:103D700013808DF812B000BF3846FDF737FF0128D9
:103D8000FAD13846494622460123CDF800A0012643
:103D9000FEF7FCF89DF81200FF2840F0C98240F2BF
:103DA0009600C2F20000008801260028DFD100F052
:103DB000C9BE00BF4A2000214FF0000BFFF72AFBCD
:103DC00060B1012600F0BEBE7A2000210024FFF77A
:103DD00021FBB8B3042600F0B5BE00BF40F2960147
:103DE00042F25C17C2F200010A204FF0FF08C2F253
:103DF00000074FF47A7A0DF113090DF112040880CF
:103E00008DF813808DF812B03846FDF7EFFE0128CB
:103E1000FAD13846494622460123CDF800A00126B2
:103E2000FEF7B4F89DF81200FF2840F07F8440F2BE
:103E30009600C2F20000008801260028E0D100F0C0
:103E400081BE00BF8DF8124042F25C14FF20C2F226
:103E500000048DF813002046FDF7C8FE0128FAD1B2
:103E600042F25C14C2F200044FF47A770DF11301B0
:103E70000DF11202204601230097FEF787F89DF806
:103E800012002870FF208DF8130000208DF812001A
:103E90002046FDF7ABFE0128FAD142F25C14C2F2D3
:103EA00000044FF47A770DF113010DF11202204650
:103EB00001230097FEF76AF89DF812006870FF2052
:103EC0008DF8130000208DF812002046FDF78EFEBD
:103ED0000128FAD142F25C14C2F200044FF47A775E
:103EE0000DF113010DF11202204601230097FEF798
:103EF0004DF89DF81200A870FF208DF813000020E7
:103F00008DF812002046FDF771FE0128FAD142F229
:103F10005C104FF47A77C2F200000DF113010DF13D
:103F2000120201230097FEF731F89DF812000426D3
:103F3000E87000F007BE00BFFE2840F00386FF20B7
:103F400042F25C148DF813000020C2F200048DF8D8
:103F500012002046FDF74AFE0128FAD142F25C1415
:103F6000C2F200044FF47A770DF113010DF1120241
:103F7000204601230097FEF709F89DF812A0FF20C4
:103F80008DF8130000208DF812002046FDF72EFE5C
:103F90000128FAD142F25C14C2F200044FF47A779D
:103FA0000DF113010DF11202204601230097FDF7D8
:103FB000EDFFFF208DF8130000208DF81200204641
:103FC000FDF714FE0128FAD142F25C14C2F200049B
:103FD0004FF47A770DF113010DF1120220460123FF
:103FE0000097FDF7D3FFFF208DF8130000208DF818
:103FF00012002046FDF7FAFD0128FAD142F25C14C6
:10400000C2F200044FF47A770DF113010DF11202A0
:10401000204601230097FDF7B9FFFF208DF813001C
:1040200000208DF812002046FDF7E0FD0128FAD1AE
:1040300042F25C14C2F200044FF47A770DF11301DE
:104040000DF11202204601230097FDF79FFFFF208C
:104050008DF8130000208DF812002046FDF7C6FDF4
:104060000128FAD142F25C14C2F200044FF47A77CC
:104070000DF113010DF11202204601230097FDF707
:1040800085FF9DF812000390FF208DF8130000209B
:104090008DF812002046FDF7A9FD0128FAD142F261
:1040A0005C14C2F200044FF47A770DF113010DF1A4
:1040B0001202204601230097FDF768FF9DF81200C9
:1040C0000290FF208DF8130000208DF8120020468A
:1040D000FDF78CFD0128FAD142F25C14C2F2000413
:1040E0004FF47A770DF113010DF1120220460123EE
:1040F0000097FDF74BFF9DF81280FF208DF813000D
:1041000000208DF812002046FDF770FD0128FAD13D
:1041100042F25C14C2F200044FF47A770DF11301FD
:104120000DF11202204601230097FDF72FFF9DF8A5
:104130001290FF208DF8130000208DF81200204609
:10414000FDF754FD0128FAD142F25C14C2F20004DA
:104150004FF47A770DF113010DF11202204601237D
:104160000097FDF713FF9DF812B0FF208DF81300A4
:1041700000208DF812002046FDF738FD0128FAD105
:1041800042F25C14C2F200044FF47A770DF113018D
:104190000DF11202204601230097FDF7F7FE9DF86E
:1041A0001260FF208DF8130000208DF812002046C9
:1041B000FDF71CFD0128FAD142F25C14C2F20004A2
:1041C0004FF47A770DF113010DF11202204601230D
:1041D0000097FDF7DBFEFF208DF8130000208DF81F
:1041E00012002046FDF702FD0128FAD142F25C14CC
:1041F000C2F200044FF47A770DF113010DF11202AF
:10420000204601230097FDF7C1FEFF208DF8130023
:1042100000208DF812002046FDF7E8FC0128FAD1B5
:1042200042F25C14C2F200044FF47A770DF11301EC
:104230000DF11202204601230097FDF7A7FEFF2093
:104240008DF8130000208DF812002046FDF7CEFCFB
:104250000128FAD142F25C14C2F200044FF47A77DA
:104260000DF113010DF11202204601230097FDF715
:104270008DFEFF208DF8130000208DF812002046DF
:10428000FDF7B4FC0128FAD142F25C14C2F200043A
:104290004FF47A770DF113010DF11202204601233C
:1042A0000097FDF773FEFF208DF8130000208DF8B6
:1042B00012002046FDF79AFC0128FAD142F25C1464
:1042C000C2F200044FF47A770DF113010DF11202DE
:1042D000204601230097FDF759FEFF208DF81300BB
:1042E00000208DF812002046FDF780FC0128FAD14D
:1042F00042F25C104FF47A77C2F200000DF1130124
:104300000DF1120201230097FDF740FE0AF0C000F4
:10431000402840F041844FEA894040EA8B204FF624
:10432000004100F58060C0F2FF31084000F04ABC57
:10433000FE2840F00784FF2042F25C148DF8130041
:104340000020C2F200048DF812002046FDF74EFC5A
:104350000128FAD142F25C14C2F200044FF47A77D9
:104360000DF113010DF11202204601230097FDF714
:104370000DFE9DF812002870FF208DF8130000201C
:104380008DF812002046FDF731FC0128FAD142F2E7
:104390005C14C2F200044FF47A770DF113010DF1B1
:1043A0001202204601230097FDF7F0FD9DF8120050
:1043B0006870FF208DF8130000208DF81200204651
:1043C000FDF714FC0128FAD142F25C14C2F2000499
:1043D0004FF47A770DF113010DF1120220460123FB
:1043E0000097FDF7D3FD9DF81200A870FF208DF80F
:1043F000130000208DF812002046FDF7F7FB01287E
:10440000FAD142F25C14C2F200044FF47A770DF153
:1044100013010DF11202204601230097FDF7B6FDAE
:104420009DF81200E870FF208DF8130000208DF831
:1044300012002046FDF7DAFB0128FAD142F25C14A3
:10444000C2F200044FF47A770DF113010DF112025C
:10445000204601230097FDF799FD9DF81200287171
:10446000FF208DF8130000208DF812002046FDF784
:10447000BDFB0128FAD142F25C14C2F200044FF4F1
:104480007A770DF113010DF11202204601230097F6
:10449000FDF77CFD9DF812006871FF208DF8130078
:1044A00000208DF812002046FDF7A0FB0128FAD16C
:1044B00042F25C14C2F200044FF47A770DF113015A
:1044C0000DF11202204601230097FDF75FFD9DF8D4
:1044D0001200A871FF208DF8130000208DF8120043
:1044E0002046FDF783FB0128FAD142F25C14C2F2A8
:1044F00000044FF47A770DF113010DF112022046FA
:1045000001230097FDF742FD9DF81200E871FF209E
:104510008DF8130000208DF812002046FDF766FB91
:104520000128FAD142F25C14C2F200044FF47A7707
:104530000DF113010DF11202204601230097FDF742
:1045400025FD9DF812002872FF208DF81300002031
:104550008DF812002046FDF749FB0128FAD142F2FE
:104560005C14C2F200044FF47A770DF113010DF1DF
:104570001202204601230097FDF708FD9DF8120066
:104580006872FF208DF8130000208DF8120020467D
:10459000FDF72CFB0128FAD142F25C14C2F20004B0
:1045A0004FF47A770DF113010DF112022046012329
:1045B0000097FDF7EBFC9DF81200A872FF208DF824
:1045C000130000208DF812002046FDF70FFB012894
:1045D000FAD142F25C14C2F200044FF47A770DF182
:1045E00013010DF11202204601230097FDF7CEFCC6
:1045F0009DF81200E872FF208DF8130000208DF85E
:1046000012002046FDF7F2FA0128FAD142F25C14BA
:10461000C2F200044FF47A770DF113010DF112028A
:10462000204601230097FDF7B1FC9DF81200287386
:10463000FF208DF8130000208DF812002046FDF7B2
:10464000D5FA0128FAD142F25C14C2F200044FF408
:104650007A770DF113010DF1120220460123009724
:10466000FDF794FC9DF812006873FF208DF813008D
:1046700000208DF812002046FDF7B8FA0128FAD183
:1046800042F25C14C2F200044FF47A770DF1130188
:104690000DF11202204601230097FDF777FC9DF8EB
:1046A0001200A873FF208DF8130000208DF812006F
:1046B0002046FDF79BFA0128FAD142F25C14C2F2BF
:1046C00000044FF47A770DF113010DF11202204628
:1046D00001230097FDF75AFC9DF81200E873FF20B4
:1046E0008DF8130000208DF812002046FDF77EFAA9
:1046F0000128FAD142F25C14C2F200044FF47A7736
:104700000DF113010DF11202204601230097FDF770
:104710003DFCFF208DF8130000208DF8120020468C
:10472000FDF764FA0128FAD1FCE100BFFE2840F051
:104730000982FF2042F25C148DF813000020C2F2BF
:1047400000048DF812002046FDF750FA0128FAD136
:1047500042F25C14C2F200044FF47A770DF11301B7
:104760000DF11202204601230097FDF70FFC9DF882
:1047700012002870FF208DF8130000208DF8120021
:104780002046FDF733FA0128FAD142F25C14C2F256
:1047900000044FF47A770DF113010DF11202204657
:1047A00001230097FDF7F2FB9DF812006870FF20CF
:1047B0008DF8130000208DF812002046FDF716FA40
:1047C0000128FAD142F25C14C2F200044FF47A7765
:1047D0000DF113010DF11202204601230097FDF7A0
:1047E000D5FB9DF81200A870FF208DF81300002063
:1047F0008DF812002046FDF7F9F90128FAD142F2AE
:104800005C14C2F200044FF47A770DF113010DF13C
:104810001202204601230097FDF7B8FB9DF8120015
:10482000E870FF208DF8130000208DF8120020465C
:10483000FDF7DCF90128FAD142F25C14C2F200045F
:104840004FF47A770DF113010DF112022046012386
:104850000097FDF79BFB9DF812002871FF208DF853
:10486000130000208DF812002046FDF7BFF9012843
:10487000FAD142F25C14C2F200044FF47A770DF1DF
:1048800013010DF11202204601230097FDF77EFB74
:104890009DF812006871FF208DF8130000208DF83C
:1048A00012002046FDF7A2F90128FAD142F25C1469
:1048B000C2F200044FF47A770DF113010DF11202E8
:1048C000204601230097FDF761FB9DF81200A871B7
:1048D000FF208DF8130000208DF812002046FDF710
:1048E00085F90128FAD142F25C14C2F200044FF4B7
:1048F0007A770DF113010DF1120220460123009782
:10490000FDF744FB9DF81200E871FF208DF81300BD
:1049100000208DF812002046FDF768F90128FAD131
:1049200042F25C14C2F200044FF47A770DF11301E5
:104930000DF11202204601230097FDF727FB9DF899
:1049400012002872FF208DF8130000208DF812004D
:104950002046FDF74BF90128FAD142F25C14C2F26D
:1049600000044FF47A770DF113010DF11202204685
:1049700001230097FDF70AFB9DF812006872FF20E3
:104980008DF8130000208DF812002046FDF72EF957
:104990000128FAD142F25C14C2F200044FF47A7793
:1049A0000DF113010DF11202204601230097FDF7CE
:1049B000EDFA9DF81200A872FF208DF81300002078
:1049C0008DF812002046FDF711F90128FAD142F2C4
:1049D0005C14C2F200044FF47A770DF113010DF16B
:1049E0001202204601230097FDF7D0FA9DF812002D
:1049F000E872FF208DF8130000208DF81200204689
:104A0000FDF7F4F80128FAD142F25C14C2F2000476
:104A10004FF47A770DF113010DF1120220460123B4
:104A20000097FDF7B3FA9DF812002873FF208DF868
:104A3000130000208DF812002046FDF7D7F801285A
:104A4000FAD142F25C14C2F200044FF47A770DF10D
:104A500013010DF11202204601230097FDF796FA8B
:104A60009DF812006873FF208DF8130000208DF868
:104A700012002046FDF7BAF80128FAD142F25C1480
:104A8000C2F200044FF47A770DF113010DF1120216
:104A9000204601230097FDF779FA9DF81200A873CC
:104AA000FF208DF8130000208DF812002046FDF73E
:104AB0009DF80128FAD142F25C14C2F200044FF4CE
:104AC0007A770DF113010DF11202204601230097B0
:104AD000FDF75CFA9DF81200E873FF208DF81300D3
:104AE00000208DF812002046FDF780F80128FAD149
:104AF00042F25C14C2F200044FF47A770DF1130114
:104B00000DF11202204601230097FDF73FFAFF2026
:104B10008DF8130000208DF812002046FDF766F88E
:104B20000128FAD142F25C104FF47A77C2F2000009
:104B30000DF113010DF1120201230097FDF726FA82
:104B4000FFF7F9B840F60040C4F60000202101222A
:104B5000FBF7B8FDFF2042F25C148DF81300002033
:104B6000C2F200048DF812002046FDF73FF801283C
:104B7000FAD142F25C104FF47A77C2F200000DF1E4
:104B800013010DF1120201230097FDF7FFF93046E2
:104B900005B000F01AB800BF03980BF0030100F055
:104BA0000F0000EBD610029A00EB41004FEA88019B
:104BB00041EA991102F0030241EA822101310738EA
:104BC00001FA00F02860FFF7B6B830BCBDE8C08F2E
:104BD0002DE9F04F83B000284FF0040040F0C18170
:104BE0001E46002B00F0BD8140F20800C2F200001A
:104BF0000078C00752D140F28800C2F2000000786D
:104C000040F600481446C4F6000840078A4658BFDC
:104C10005402404620210022FBF754FD012E41D1D1
:104C200051202146FEF7F6FB002840D140F29601C4
:104C300042F25C14C2F200010A204FF0FF0B4FF069
:104C40000008C2F200044FF47A750DF10B090DF162
:104C50000A070126088000BF8DF80BB08DF80A8086
:104C60002046FCF7C3FF0128FAD1204649463A46C0
:104C700001230095FDF78AF99DF80A00FF2840F00E
:104C8000C18040F29600C2F2000000880028E3D103
:104C900040F600480126C4F600083BE1032003B0BB
:104CA00000F062B952202146FEF7B4FB10B1012694
:104CB00030E100BF40F2960542F25C17C2F20005F7
:104CC0004FF00A0BC2F200070DF10A09A5F800B077
:104CD000FF208DF80B0000208DF80A003846FCF705
:104CE00085FF0128FAD138460DF10B014A46012310
:104CF0004FF47A740094FDF749F99DF80A00FF28F3
:104D000004D128880028E3D177E000BFFE2874D1C1
:104D10004FF4007B554600BFFF208DF80B000020AC
:104D20008DF80A003846FCF761FF0128FAD13846B1
:104D30000DF10B014A4601234FF47A740094FDF7FC
:104D400025F99DF80A002870FF208DF80B0000203F
:104D50008DF80A003846FCF749FF0128FAD1384699
:104D60000DF10B014A4601234FF47A7405F1020854
:104D70000094FDF70BF99DF80A00BBF1020B687077
:104D80004546C9D1FF208DF80B0000204FF00A0BDB
:104D90008DF80A003846FCF729FF0128FAD1384679
:104DA0000DF10B014A4601234FF47A750095FDF78A
:104DB000EDF8FF2040F6004840F296058DF80B0014
:104DC0000020C4F60008C2F200058DF80A0000BFFA
:104DD0003846FCF70BFF0128FAD138460DF10B01DC
:104DE0004A4601234FF47A740094FDF7CFF8013E50
:104DF0000AF5007A7FF46AAF00264C200021FEF706
:104E000009FB87E040F60048FE28C4F6000840F0A1
:104E1000818042F25C144FF40079FF250027C2F232
:104E200000040DF10B0600BF8DF80B508DF80A70D1
:104E30002046FCF7DBFE0128FAD12046B346314676
:104E40000DF10A0201234FF47A760096FDF79EF8E1
:104E50009DF80A008DF80B508AF800008DF80A7052
:104E60002046FCF7C3FE0128FAD1204659460DF131
:104E70000A0201234FF47A770AF102085E4600978E
:104E8000FDF784F89DF80A00B9F102098AF80100DB
:104E9000C2464FF0FF054FF00007C5D1FF2042F298
:104EA0005C148DF80B000020C2F200048DF80A009B
:104EB0002046FCF79BFE0128FAD142F25C14C2F2B4
:104EC00000044FF47A770DF10B010DF10A02204630
:104ED00001230097FDF75AF8FF2040F600488DF8AF
:104EE0000B000020C4F600088DF80A002046FCF7ED
:104EF0007DFE0128FAD142F25C104FF47A77C2F2BB
:104F000000000DF10B010DF10A0201230097FDF7DE
:104F10003DF80026404620210122FBF7D3FBFF206D
:104F200042F25C148DF80B000020C2F200048DF8F0
:104F30000A0000BF2046FCF759FE0128FAD142F2D0
:104F40005C104FF47A77C2F200000DF10B010DF105
:104F50000A0201230097FDF719F8002E18BF012659
:104F6000304603B000F000B830BCBDE8C08F000090
:104F700000281CBF0120704740F20800C2F2000068
:104F8000007870472DE9F04F83B04FF0040780BBE5
:104F90001E4673B340F20800C2F200000D460178CD
:104FA000C90725D10078400728D440F28807C2F20B
:104FB0000007387840F600481446C4F60008400759
:104FC00058BF5402404620210022FBF77BFB012EF4
:104FD0001AD158202146FEF71DFA002877D128461D
:104FE000FE21FEF73BFBB0FA80F0470970E000BFFE
:104FF0000327384603B000F0ADB800BF022738469B
:1050000003B000F0A7B800BF3878800707D5772035
:105010000021FEF7FFF957203146FEF7FBF9592032
:105020002146FEF7F7F9002851D103E0013E05F5CE
:10503000007505D02846FC21FEF710FB0028F5D1AD
:1050400040F29809C2F200094FF4FA70A9F8000082
:10505000FF2042F25C148DF809000020C2F2000427
:105060008DF808002046FCF7C1FD0128FAD142F274
:105070005C14C2F200044FF47A7A0DF1090102AA1D
:1050800020460123CDF800A0FCF780FF4FF0FF0B76
:1050900000270DF10B050DF10A0600BF8DF80BB0CE
:1050A0008DF80A702046FCF7A1FD0128FAD12046B0
:1050B000294632460123CDF800A0FCF767FF9DF892
:1050C0000A00FF282CD0B9F800000028E6D10127FB
:1050D000404620210122FBF7F5FAFF2042F25C1442
:1050E0008DF807000020C2F200048DF8060000BF12
:1050F0002046FCF77BFD0128FAD142F25C104FF408
:105100007A76C2F200000DF107010DF106020123CB
:105110000096FCF73BFF384603B000F01BB800BF19
:1051200042F25C14FD20C2F200048DF8050000BFBD
:105130002046FCF75BFD0128FAD142F25C10C2F276
:1051400000000DF1050101224FF47A730127FCF7ED
:10515000F5FDBDE730BCBDE8C08F00002DE9F0478C
:1051600082B000271D4690460E4681468DF803709A
:10517000FBF7AEFA281A00EB0804FBF7A9FA40F295
:105180000C01C2F20001096823225143090DD9F82C
:10519000005061430191A968314279D08246B6F549
:1051A000C06F1FD108F10106284603E0816811F4A1
:1051B000C06F71D0297B002E8DF803109DF803106D
:1051C000F4D0FBF785FAA0EB0A00A04224D20199A3
:1051D00001980029A0F101000190D9F8000008BF52
:1051E0000C46E3E718F1010044D000BFFBF770FA6A
:1051F000A0EB0A00A0420FD2019801990028A1F16A
:1052000001010191D9F80010896808BF04463142B4
:10521000ECD100273CE000BFD9E900014268B1F5BC
:10522000827F22F0E00242600BD1D9F80810B1F57C
:10523000004F02D0B1F5806F03D1016821F0400129
:105240000160D9F82810B1F5005F07D1016821F499
:1052500000510160016841F400510160012089F8AA
:105260005D00002089F85C000327384602B0BDE8E5
:10527000F08700BF002700BFA86830420CD0A868A4
:10528000304209D0A868304206D0A8683042F3D135
:10529000384602B0BDE8F0870027384602B0BDE8C6
:1052A000F0870000F0B581B015460E460446FBF7C6
:1052B0000FFA281A8719FBF70BFA40F20C01C2F219
:1052C00000010968C1F3CB317943009121688A68F4
:1052D000120622D50546701C15D000BFFBF7F8F961
:1052E000401BB8421CD2009800990028A1F101018E
:1052F00000912168896808BF07460806EED40CE0D3
:105300008868000609D58868000606D58868000602
:1053100044BF88685FEA0060F2D4002001B0F0BDAD
:10532000D4E900014268B1F5827F22F0E0024260D8
:105330000AD1A168B1F5004F02D0B1F5806F03D159
:10534000016821F040010160A16AB1F5005F07D159
:10535000016821F400510160016841F400510160CD
:10536000012084F85D00002084F85C00032001B077
:10537000F0BD00007047000040F29400C2F200004F
:1053800001780131017001780A290ED300210170E2
:10539000418811B14188013941808188002908BFC5
:1053A000FBF79CB9818801398180FBF797B9000030
:1053B00010B596B005A804302421FAF7EFFF0024B9
:1053C0004FF400700494CDE90244CDE90044FBF7AA
:1053D00031FA28B1EFF3108072B600BFFEE700BFCC
:1053E000FBF77CFA41F29000C4F20200016821F060
:1053F000180101601C206021059001200D910221FF
:105400000790CDE90A00CDE90F10119014201290F9
:105410000720CDE9130105A80C941591FBF730FE88
:1054200020B1EFF3108072B6FEE700BF0F200090AE
:10543000032001900020CDE902000490684602217B
:10544000FBF752FC20B1EFF3108072B6FEE700BF0D
:10545000FBF74EFA16B010BD4EF68850CEF20000A3
:10546000016841F4700101607047000042F2C01011
:10547000C2F20000FDF7F0B880B540F6FF330268D5
:10548000C4F2000398422DDCB0F1804F3CD040F2D2
:105490000043C4F20003984236D040F60003C4F241
:1054A0000003984230D042F6FF33C4F20103984221
:1054B00034DD43F6FF73C4F2010398423EDD44F24B
:1054C0000003C4F20103984252D044F60003C4F230
:1054D000010398424CD044F20043C4F201039842C5
:1054E00046D049E040F60043C4F2000398420BD096
:1054F00043F20043C4F20103984205D042F6004350
:10550000C4F201039842CED14B6822F070021A43D4
:1055100042F6FF33C4F201039842CADC40F2FF7343
:10552000C4F20003984217DCB0F1804F20D040F263
:105530000043C4F2000398421AD01DE042F6004333
:10554000C4F20103984213D043F20043C4F20103B2
:1055500098420DD010E000BF40F60003C4F20003F3
:10556000984205D040F60043C4F20003984203D1AC
:10557000CB6822F440721A434B6922F0800E8A688D
:1055800043EA0E03D1F800C00360C262A0F180427A
:10559000A2F596324FEAB222072AC0F828C007D8EF
:1055A000012303FA02F212F0E50F1CBF096901633F
:1055B0000121416180BD000080B5416ACA070DD15B
:1055C0008A0716D44A071FD40A0728D4CA0631D43A
:1055D0008A063AD44A0658D542E000BF0268D0F89D
:1055E00028C0536823F4003343EA0C0353608A074E
:1055F000E8D50268D0F82CC0536823F4803343EA1E
:105600000C0353604A07DFD50268D0F830C05368F6
:1056100023F4802343EA0C0353600A07D6D50268BB
:10562000D0F834C0536823F4004343EA0C035360BA
:10563000CA06CDD50268D0F838C0936823F48053E9
:1056400043EA0C0393608A06C4D50268D0F83CC0D4
:10565000936823F4005343EA0C0393604A0614D57D
:105660000268D0F840C05368BCF5801F23F4801353
:1056700043EA0C03536008D1D2F804C0D0F844E0E8
:105680002CF4C00343EA0E035360090658BF80BDE3
:105690000168806C4A6822F400221043486080BD93
:1056A000B0B505462A69D5E9021300680A4369695D
:1056B000D5F81CE01143026846F6F314CEF6FF74E9
:1056C00041EA0E01224011430160416848F2000C9A
:1056D00021F4405119434160AA69C4F2000C6045AD
:1056E0001CBF296A0A438168102321F430611143E9
:1056F000816044F6FF71C4F20001884218DC44F274
:105700000041C4F20001884228D044F60001C4F2EE
:10571000000188422AD044F60041C4F200018842C8
:1057200042D141F28801C4F2020109688B0933E0D9
:1057300045F20001C4F2000188421FD0604525D027
:1057400043F60001C4F2010188422DD141F28801E3
:10575000C4F202010B686BA222E000BF41F2880193
:10576000C4F2020109688B0816E000BF41F288010B
:10577000C4F2020109680B090EE000BF41F2880182
:10578000C4F2020109680B0A06E000BF41F2880179
:10579000C4F2020109688B0A48F2C842C0F600024E
:1057A00003F0030152F82130604542F20040C0F29C
:1057B000F40015D0BEF5004F22D1082B4FF00101A7
:1057C00000F29B80DFE803F0065864995C99999990
:1057D000620000BFFBF7C6FB002840F0598052E092
:1057E000082B4FF0010100F28880DFE803F0058606
:1057F00023861B8686862100FBF7B4FBD0B914E014
:10580000082B4FF0010100F27880DFE803F0055922
:1058100065765D7676766300FBF7A4FB00285BD1A6
:1058200055E000BFFBF7CAFB20B9002165E000BFCF
:105830004FF400406A6802EB420188424FF00101D8
:105840005BD31303984258D8010E000210EB5200AC
:1058500041F100010023FAF707FD4FF6FF42A0F5E2
:105860004071C0F20F02914204D82968C86000213B
:1058700043E000BF012140E0FBF78AFB40B902E0B2
:10588000FBF79CFB20B9002137E000BF4FF400403C
:1058900069684A0802EB4000B0FBF1F04FF6EF7286
:1058A000A0F11001914209D84FF6F0710140C0F308
:1058B00042002A680844D06000211EE001211CE05B
:1058C000FBF766FB40B902E0FBF778FB20B900214B
:1058D00013E000BF4FF4004069684FF6EF7200EB31
:1058E0005100B0FBF1F0A0F11001914204D82968F9
:1058F000C860002101E000BF0121002208466A665D
:10590000AA66B0BD01000000040000000200000013
:10591000080000002DE9F041044600681546C26900
:105920000E461140891BB1FA81F14909A94240F0A4
:105930009A80DDF81880B8F1000F27D018F1010126
:105940007AD100BFC1693140891BB1FA81F149099F
:10595000A94240F08880C1693140891BB1FA81F1C8
:105960004909A94240F07F80C1693140891BB1FAE1
:1059700081F14909A94276D1C1693140891BB1FA47
:1059800081F14909A942DDD06DE000BFFAF7A0FE20
:10599000206850E8000F216820F4D07041E8000230
:1059A000BAB3206850E8000F216820F4D07041E8B5
:1059B000000272B3206850E8000F216820F4D07014
:1059C00041E800022AB3206850E8000F216820F463
:1059D000D07041E80002002ADAD11AE0206850E8CD
:1059E000020F216820F0010041E80202DAB12068CC
:1059F00050E8020F216820F0010041E8020292B154
:105A0000206850E8020F216820F0010041E80202FE
:105A10004AB1206850E8020F216820F0010041E8F7
:105A20000202002ADAD12020A067E067002084F873
:105A300074000320BDE8F0811F4600BFFAF748FE5E
:105A4000C01B4045A4D820680168490744BFC1690C
:105A50005FEA01510AD4C0693040801BB0FA80F07F
:105A60004009A842EAD00020BDE8F0814FF400616F
:105A7000016200BF50E8000F216820F4D07041E8B7
:105A80000002C2B3206850E8000F216820F4D070F3
:105A900041E800027AB3206850E8000F216820F442
:105AA000D07041E8000232B3206850E8000F21684E
:105AB00020F4D07041E80002EAB12068DAE700BFC4
:105AC000206850E8020F216820F0010041E802023E
:105AD000DAB1206850E8020F216820F0010041E8A7
